:020000040800F2
:10000000280500209D010008EB0F0008350F0008AF
:10001000E90F0008D5020008551300080000000091
:10002000000000000000000000000000EF0F0008CA
:10003000D702000800000000ED0F0008F10F0008D3
:10004000B7010008B7010008B7010008B7010008B0
:10005000B7010008B7010008B7010008B7010008A0
:10006000B7010008B7010008B7010008B701000890
:10007000B7010008B7010008B7010008B701000880
:10008000B7010008B7010008B7010008B701000870
:10009000B7010008B7010008B7010008B701000860
:1000A000B7010008B7010008B7010008B701000850
:1000B000B7010008B7010008B7010008B701000840
:1000C000B7010008B7010008B7010008B701000830
:1000D000B7010008B701000849130008B70100087C
:1000E000B7010008B7010008B7010008B701000810
:1000F000B7010008B7010008B7010008B701000800
:10010000B7010008B7010008B7010008B7010008EF
:10011000B7010008B7010008B7010008B7010008DF
:10012000B7010008B7010008B7010008B7010008CF
:10013000B7010008B7010008B7010008B7010008BF
:10014000B7010008B7010008B7010008B7010008AF
:10015000B7010008B7010008B7010008B70100089F
:10016000B7010008B7010008B7010008B70100088F
:10017000B7010008B7010008B7010008000000003F
:10018000B7010008B7010008DFF80CD000F090F8C4
:10019000004800472515000828050020064880472C
:1001A00006480047FEE7FEE7FEE7FEE7FEE7FEE75C
:1001B000FEE7FEE7FEE7FEE7791000088901000888
:1001C0002DE9F05F0546002092469B46884606468C
:1001D000814640241BE0284641464746224600F01F
:1001E00057F853465A46C01A914110D31146184643
:1001F000224600F03EF82D1A67EB01084F462246D2
:100200000120002100F035F817EB00094E41201EB7
:10021000A4F10104DFDC484631462A464346BDE8E6
:10022000F09FD2B201E000F8012B491EFBD27047CB
:100230000022F6E710B513460A4604461946FFF7B2
:10024000F0FF204610BD30B50B46014600202022AD
:10025000012409E021FA02F59D4205D303FA02F5D3
:10026000491B04FA02F52844151EA2F10102F1DC33
:1002700030BD202A04DB203A00FA02F1002070474A
:100280009140C2F1200320FA03F3194390407047D4
:10029000202A04DB203A21FA02F00021704721FADB
:1002A00002F3D040C2F12002914008431946704742
:1002B000064C074D06E0E06840F0010394E80700B3
:1002C00098471034AC42F6D3FFF762FFB816000827
:1002D000D8160008FEE77047704790F835100229DD
:1002E00003D08021416501207047052180F8351039
:1002F0000068016821F001010160002070470000E2
:1003000070B5044600F0EAF80546601C02D00448C7
:100310000078044400F0E2F8401BA042FAD370BD1C
:10032000080000202DE9F84F00224FF001080325B6
:100330004FF00F0E0B6808FA02F42340A3426ED16F
:100340004E68012E05D0022E03D0112E01D0122EA0
:1003500012D186684FEA420C05FA0CF7BE43CF680B
:1003600007FA0CF7374387604668A6430C79C4F355
:100370000014944034434460C668570005FA07FCF3
:100380008C6826EA0C06BC403443C4604C68022CDE
:1003900001D0122C13D1D40800EB8404A346D4F866
:1003A000209054074FEAD46A0EFA0AF629EA0609A1
:1003B0000E6906FA0AF646EA0906CBF820600668D6
:1003C0000C7926EA0C0604F00304BC4034430460B4
:1003D0004C68E40065D5364C266846F480462660B5
:1003E000246822F0030604F480440094314C344421
:1003F000A446D4F808489607370F0EFA07F6B44318
:100400002D4EB04201D1002624E02C4EB04201D145
:1004100001261FE02A4EB04202D102261AE040E037
:10042000284EB04201D1032614E0274EB04201D13C
:1004300004260FE0254EB04201D105260AE0244EE5
:10044000B04201D1062605E0224EB04201D1072676
:1004500000E00826BE402643CCF808681E4E3468EB
:100460004F689C43FF0300D51C4334601A4C241D85
:1004700026684F689E43BF0300D51E432660164E74
:10048000083634684F689C43FF0200D51C43346033
:10049000114E0C3634684F689C43BF0200D51C4394
:1004A0003460521C102AFFF445AFBDE8F88F0000FD
:1004B0004438024000300140000002400004024085
:1004C00000080240000C02400010024000140240EC
:1004D00000180240001C0240003C014001488068B6
:1004E000704700000800002002488168027811442B
:1004F00081607047080000200B4810B5016841F486
:1005000000710160016841F480610160016841F49B
:1005100080710160032000F06FF8002000F006F801
:1005200000F024F8002010BD003C024070B50D4DD5
:1005300004464FF47A712878B1FBF0F00A49096853
:10054000B1FBF0F000F004FB48B9102C07D20022F8
:100550002146501E00F030F800206C6070BD012074
:1005600070BD000008000020140000200A4808B5F3
:10057000016841F480410160006800F4804000900F
:100580000548001F016841F080510160006800F0DB
:100590008050009008BD000044380240002809DB6C
:1005A00000F01F02012191404009800000F1E0208D
:1005B000C0F8001170470000F0B40E4B1B680C46E9
:1005C000C3F30223C3F10705042D00D90425191D27
:1005D000072901D2002300E0DB1E012606FA05F1FF
:1005E000491E214099409E40761E16403143F0BC82
:1005F00000F0C2BE0CED00E0064900F007020868FA
:100600004FF6FF03184040EA0220034A10430860F7
:10061000704700000CED00E00000FA052DE9F047FE
:100620000E46050065D0DFF81481D8F80000F7B257
:1006300000F00F00B04207D288F80070D8F8000030
:1006400000F00F00B04254D128683D4C810712D50C
:10065000400703D5206840F4E05020602878000768
:1006600003D5206840F4604020602068A96820F02D
:10067000F000084320602878C0072DD03049686812
:100680000839012812D0022813D0032811D0096894
:10069000890700292DDA216821F003010143216037
:1006A000FFF71CFF814641F2883A0EE00968890392
:1006B000EFE709688901ECE7FFF710FFA0EB0901FC
:1006C000514502D90320BDE8F0872068696800F031
:1006D0000C00B0EB810FEFD1D8F80010404601F0CC
:1006E0000F01B14207D90770006800F00F00B04257
:1006F00001D00120E7E72878400705D52068E968A0
:1007000020F4E050084320602878000706D52068D0
:10071000296920F4604040EAC100206000F038F808
:100720002168084AC1F30311515CC84006490860BA
:1007300006480068FFF7FAFE0020C4E7003C0240CC
:1007400008380240A0160008140000200C00002009
:100750000448054900680968044AC1F38221515CD4
:10076000C84070471400002008380240B016000846
:100770000448054900680968044AC1F34231515CE4
:10078000C84070471400002008380240B016000826
:10079000154810B5006810F00C02144813D0144925
:1007A000042A0FD0082A0ED10F4C241F2268236878
:1007B00002F03F025B0207D52068C0F38810A0FB5F
:1007C000010106E0084610BD2168C1F38811A1FBB4
:1007D00000010023FFF7F4FC2168C1F30141491C2B
:1007E0004900B0FBF1F010BD083802400024F400CD
:1007F00040787D012DE9F84F04006ED02078DFF8B5
:100800003C93C007A9F104054AD009F1040001682E
:10081000C1F38101012908D00068C0F381000228DA
:100820000AD1D9F80000400206D52868800337D5E0
:1008300060680028E1D033E06068B0F5803F10D0F8
:10084000B0F5A02F286810D020F4803028602868E8
:1008500020F4802028606068A8B1FFF73FFE0646BC
:100860000DE0286840F48030F4E740F480202860F0
:10087000F7E700BFFFF732FE801B642873D82868B3
:100880008003F7D50CE0FFF729FE064605E000BF20
:10089000FFF724FE801B6428F0D828688003F7D473
:1008A0002078DFF89C8280074FF0000A3ED5A348ED
:1008B000001D016811F00C0F08D00068C0F3810022
:1008C00002280BD1D9F80000400207D4286880071D
:1008D00016D5E068012800D112E02BE1E068B8B13C
:1008E0000120C8F80000FFF7F9FD064605E000BF4B
:1008F000FFF7F4FD801B0228C0D828688007F7D5D1
:100900002868216920F0F80040EAC10028600DE065
:10091000C8F800A0FFF7E2FD064604E0FFF7DEFDA1
:10092000801B02281FD828688007F7D4207800078A
:1009300022D5824E83486169703671B10121016010
:10094000FFF7CCFD074604E0FFF7C8FDC01B0228F7
:1009500009D830688007F7D50EE0C0F800A0FFF78F
:10096000BDFD074605E082E0FFF7B8FDC01B022889
:100970007DD830688007F7D42078400768D5DFF845
:10098000BCB100270BF13C0BDBF80000C0000BD41E
:10099000DBF8001041F08051CBF80010DBF80000CC
:1009A000012700F080500090674E3068C00510D4D9
:1009B000306840F480703060FFF790FD009005E0F3
:1009C000FFF78CFD0099401A022850D83068C00506
:1009D000F6D55A4EA0686C3601280FD0052830682D
:1009E00010D020F001003060306820F0040030604A
:1009F000A068B8B1FFF772FD00900FE0306840F0DA
:100A00000100F4E740F004003060F7E7FFF766FD0F
:100A10000099411A41F28830814266D830688007D7
:100A2000F4D50EE0FFF75AFD009007E0FFF756FD02
:100A30000099411A41F28830814256D830688007C7
:100A4000F4D42FB1DBF8001021F08051CBF8001066
:100A5000A069C8B33949091D0968C1F38101022998
:100A60004AD00228504607D0C8F8600000E03CE0B9
:100A7000FFF734FD04463BE04746C8F86000FFF747
:100A80002DFD064605E000BFFFF728FD801B02286C
:100A90002BD828688001F7D4D4E907010843A16A5C
:100AA0002A4A490802EB0141626A41EA821108437D
:100AB00094F82C1040EA0161C9F800100120386652
:100AC000FFF70CFD044606E036E000BFFFF706FD29
:100AD000001B022809D828688001F7D52CE000BF48
:100AE000FFF7FCFC001B022802D90320BDE8F88FA9
:100AF00028688001F4D41FE00128F7D0D9F800005D
:100B0000E26900F48001914214D1226A00F03F01B1
:100B100091420FD147F6C071626A0140914209D1FA
:100B2000A26A00F44031914204D1E16A00F07060A1
:100B3000884201D00120D9E70020D7E704380240DD
:100B400000004742800E4742007000400000FFFF57
:100B500010B5401EB0F1807F01D3012010BD4FF0D1
:100B6000E02460610F21601700F006FC0020A06106
:100B700007202061002010BD7047000070B502689A
:100B800004461068D168536910F00F0F52D003F07B
:100B9000010501F490762E435FD0C20705D0CA0547
:100BA00003D5E26B42F00102E263420705D5DA07A2
:100BB00003D0E26B42F00202E263820705D5DA0756
:100BC00003D0E26B42F00402E263020707D501F0B2
:100BD00020022A4303D0E26B42F00802E263E26B98
:100BE000002A33D0800604D5880602D5204600F0BE
:100BF00067FA20684069E16BC0F38010090700D4F0
:100C000028B3204600F04EFA2068416949061AD5FB
:100C1000416921F040014161606BA0B11B49016550
:100C2000606BFFF75AFB002810D0606B016DBDE8C8
:100C300070400847830610D58B060ED52046BDE8C8
:100C4000704000F03DBA2046FFF796FF70BD204689
:100C5000FFF792FF0020E06370BD030606D50B0688
:100C600004D52046BDE8704000F00ABB4006F3D52D
:100C70004806F1D5D168204621F04001D1602021FD
:100C800084F8391000F055F970BD00009510000887
:100C900070B5040004D094F83900002510B106E0C6
:100CA000012070BD84F83850204600F023F824203D
:100CB00084F839002068C16821F40051C1602046E1
:100CC00000F04AFA2068016921F49041016120682E
:100CD000416921F02A0141612068C16841F4005155
:100CE000C160E563202084F8390084F83A000020D0
:100CF00070BD0000F0B587B0044614216846FFF7C8
:100D000097FA274F23680022264902240325072645
:100D10002548BB421CD1234B14331F6847F01007F2
:100D20001F601B6803F0100305930B6843F0010379
:100D30000B60096802AB01F0010105916902CDE980
:100D4000001483E864006946FFF7ECFA07B0F0BDD1
:100D5000164FBB42FAD1134B10331F6847F40037CC
:100D60001F601B6803F4003305930B6843F0010315
:100D70000B60096802AB01F0010105910C21CDE97E
:100D8000001483E864006946FFF7CCFA02220321CD
:100D90002620FFF711FC2620FFF700FCD6E7000015
:100DA0000010014030380240000002400044004082
:100DB00090F83A30202B22D1F9B1F2B190F83830C6
:100DC000012B1CD081628285C2850021C163222251
:100DD00080F83A2080F838100168CA6842F48072BE
:100DE000CA6001684A6942F001024A610068C1684C
:100DF00041F02001C16000207047012070470220AF
:100E00007047000070B5194C6168491C616000684A
:100E10001749884228D12046164D01786088295408
:100E200010B929780F291FD1401C80B2002660809C
:100E3000642800D9668028780F280DD1287E58B9FB
:100E40006088192808D10B4800F086FB00202E543A
:100E5000401C1928FBDB6680BDE870400548012274
:100E60000249A430FFF7A4BF70BD000000000020BD
:100E7000004400401C0000202DE9F843044690F88F
:100E800039001F4616460D46202850D1B5B1AEB1E7
:100E900094F8380001284AD0012084F838004FF037
:100EA0000008C4F83C80212084F83900FFF716FBC5
:100EB000A6848146E68484F8388026E00120BDE8D7
:100EC000F883E08C401EE084A0684B46B0F5805F5C
:100ED0004FF000024FF080012046009703D000F051
:100EE00000FAE8B90DE000F0FCF9C8B928882168DB
:100EF000C0F308004860206908B16D1C05E0AD1C16
:100F000003E0216815F8010B4860E08C0028D8D177
:100F10004B46002240212046009700F0E2F908B13C
:100F20000320CCE7202084F839000020C7E7022006
:100F3000C5E77047FEE70000094808B5016841F0C1
:100F400080010160016801F080010091016841F0B9
:100F500001010160006800F00100009008BD000080
:100F6000303802400C4810B50A4901604FF4E131B5
:100F70004160002181600C22C160C0E904128161DE
:100F8000C161FFF785FE002803D0BDE81040FFF7E0
:100F9000A3B910BD00100140800000200F4810B51B
:100FA0000D4901600E4941604FF48051816000217C
:100FB0004FF48062C0E903120C22C0E90521C1612F
:100FC000FFF766FE08B1FFF787F9BDE81040012280
:100FD00004490248FFF7ECBE00440040C000002076
:100FE000A086010000000020FEE7704770477047B0
:100FF000FFF77ABA30B593B030216846FFF718F999
:1010000014210CA8FFF714F919480025016841F0D4
:1010100080510160006800F080501190154801680F
:1010200041F4804101600068022400F48040119086
:101030000120039010200490009406940820CDE92C
:101040000750A820CDE9090404200B906846FFF75B
:10105000D1FB0CA90F2081E831004FF4A0500F9074
:10106000E002109005210CA8FFF7D8FA13B030BDAC
:1010700040380240007000400548016841F47001AA
:10108000016003494FF0006080390860704700003C
:1010900088ED00E010B5806B0021C185C184FFF7A9
:1010A0006BFD10BD0168CA6822F49072CA600168C5
:1010B0004A6922F001024A61202180F83A10704703
:1010C00010B590F83A10222901D0022010BD816895
:1010D000B1F5805F11D00169002901681FD049680E
:1010E00001F07F03816A4A1C82620B70C18D491E28
:1010F0000904090CC18518D02BE00269816A002A15
:101100000268526805D0D2B20A80816A491C8162A5
:10111000ECE7C2F308020A80816A891CF7E74A6893
:10112000816A4B1C83620A70E0E70168CA6822F09A
:101130002002CA600168CA6822F48072CA6001682D
:101140004A6922F001024A61202180F83A10FFF733
:1011500059FE002010BD00002DE9F0410446006852
:101160000169E26821F44051114301612169A068DD
:10117000E26908436169114308432168CA6849F27A
:101180000C639A430243CA6020684169A26921F452
:10119000407111434161E069192764253226B0F599
:1011A000004F354A354920684FF0000806D0884284
:1011B00001D0904236D1FFF7DBFA35E0884201D00A
:1011C000904202D1FFF7D4FA01E0FFF7C1FA61685B
:1011D0004A18A0FB070148EB0803FEF7F1FF0146A0
:1011E000B0FBF5F00201B1FBF5F06FF018035843C6
:1011F00001EB800006EBC000B0FBF5F000F0F8005A
:1012000002EB4002B1FBF5F0584301EB800006EB26
:10121000C000B0FBF5F000F00700216810448860C2
:10122000BDE8F081FFF794FA61688B0F8A00A0FB9C
:101230000701FEF7C5FF0146B0FBF5F06FF018029D
:10124000504301EB800006EB0010B0FBF5F000F01E
:10125000F002B1FBF5F002EB0012B1FBF5F06FF01C
:101260001803584301EB800006EB0010B0FBF5F0CB
:1012700000F00F00D1E70000001401400010014011
:1012800090F83910212901D0022070478168B1F50A
:10129000805F016A0BD04A1C0262026809785160C3
:1012A000C18C491E0904090CC1840ED017E00988BD
:1012B0000268C1F30801516001690029016A02D086
:1012C000491C0162ECE7891CFBE70168CA6822F04F
:1012D0008002CA600068C16841F04001C16000201E
:1012E00070472DE9F041984617460E460446069D84
:1012F0001DE0681C1BD02DB1FFF7F0F8A0EB080033
:10130000A84214D92068C16821F4D071C160206856
:10131000416921F001014161202084F8390084F8FD
:101320003A00002084F838000320BDE8F0812068EE
:10133000006836EA000004D00020B842D9D000206E
:10134000F3E70120F9E700000148FFF717BC0000B0
:10135000C0000020FEE700000FB4054B10B503A944
:10136000044A029800F028F810BC5DF814FB000055
:101370000D150008180000200907090E002804DBDD
:1013800000F1E02080F80014704700F00F0000F139
:10139000E02080F8141D704702E008C8121F08C141
:1013A000002AFAD170477047002001E001C1121FE6
:1013B000002AFBD1704700002DE9FF4F89B09B4602
:1013C0000446002506E025280BD05A460B99904785
:1013D000641C6D1C20780028F5D10DB02846BDE8AE
:1013E000F08F0027B8460122474900E0074314F870
:1013F000013F203B02FA03F00842F7D120782E2863
:1014000019D114F8010F47F004072A280ED06FF005
:101410002F022078A0F1300109290CD808EB8801AF
:1014200002EB410100EB0108641CF2E70A98641C1E
:1014300050F8048B0A9020780028CED0642808D079
:10144000692806D075281ED05A460B9990476D1C06
:1014500058E00A994FF00A0901C90A91002802DAF6
:1014600040422D2102E0390504D52B218DF82010B2
:10147000012103E0F90704D02021F7E78A4608AEEE
:101480000DE00021FAE70A994FF00A0901C90A9113
:10149000F7E74946FEF7D7FE303106F8011D002870
:1014A000F7D1ADEB060000F12009780701D44FF029
:1014B0000108C84502DDA8EB090000E000208046D5
:1014C000002706E008A85A46C05D0B9990476D1C9E
:1014D0007F1C5745F6DB04E030205A460B999047B5
:1014E0006D1CB8F10001A8F10108F5DC05E016F863
:1014F000010B5A460B9990476D1CB9F10001A9F1F7
:101500000109F4DC641C65E70928010013B54FF6F6
:10151000FF73012269460248FFF7AEFC00981CBD2C
:1015200080000020FEF7E8FFFFF764FDFFF704FDF1
:10153000FFF718FDFFF732FD4FF47A7403A0FFF7B1
:101540000BFF2046FEF7DCFEF8E7000031323334B3
:1015500035363738390A0000F8B5C17D474C19B126
:10156000002084F82000F8BD012184F82010B0F894
:101570000110C1F30A0121808278C378D20842EABF
:101580004312C2F30A026280C37805799B0943EAD9
:101590008503457943EA8523C3F30A03A38045798C
:1015A00086796D0845EAC615C5F30A05E580867992
:1015B000C779360946EA0716C6F30A062681C679B0
:1015C000077AF60946EA4706477A46EA4726C6F307
:1015D0000A066681467A877AB60846EA8716C6F30F
:1015E0000A06A681867AC77A760946EAC706E681A0
:1015F0008689C6F30A062682467B877BF60846EA7A
:101600004716C6F30A066682867BC77BB60946EA9A
:101610008706077C46EA8726C6F30A06A682067C6A
:10162000477C760846EAC716C6F30A06E682467C79
:101630003609877C46EA0716C6F30A062683867CA7
:10164000C77CF60946EA4706077D46EA4726C6F301
:101650000A066683067D477DB60846EA8716C6F306
:101660000A06A683467D807D760946EAC000E083AF
:1016700003A00095FFF770FE0120F8BD00010020D7
:101680004348313A256420204348323A25642020DB
:101690004348333A256420204348343A25640A00FD
:1016A0000000000000000000010203040607080912
:1016B0000000000001020304D8160008000000200A
:1016C0001C00000098130008F41600081C000020FD
:1016D0000C050000A8130008000000000000000036
:1016E0000100000010000000000000000024F400D1
:0416F00000000000F6
:040000050800018965
:00000001FF
